:100000000C942A000C9447000C9447000C94470071
:100010000C9447000C9447000C9451000C9447003A
:100020000C9447000C9447000C9447000C94470034
:100030000C9447000C9447000C9447000C94470024
:100040000C9447000C9447000C9447000C94470014
:100050000C94470011241FBECFE5D8E0DEBFCDBF12
:1000600010E0A0E6B0E0E2E3F9E002C005900D92F6
:10007000AE37B107D9F720E0AEE7B0E001C01D927E
:10008000A638B207E1F70E9451010C9497040C9432
:1000900000008FEF8ABB88E087BB87E084BB11BA82
:1000A00008951F920F920FB60F9211242F933F9332
:1000B0004F935F936F937F938F939F93AF93BF9370
:1000C000EF93FF93E0918400F09185000995FF91F3
:1000D000EF91BF91AF919F918F917F916F915F91C0
:1000E0004F913F912F910F900FBE0F901F90189539
:1000F0008BBB85B38E7F85BB85B38D7F85BB85B379
:10010000846085BB83EF91E00197F1F700C00000A8
:1001100085B38B7F85BB08958BBB85B3816085BB21
:1001200085B38D7F85BB85B3846085BB83EF91E00C
:100130000197F1F700C0000085B38B7F85BB089560
:1001400088E30E94780083EF91E00197F1F700C007
:10015000000081E00E94780083EF91E00197F1F7C1
:1001600000C0000082E00E94780083EF91E00197D8
:10017000F1F700C0000086E00E94780083EF91E074
:100180000197F1F700C0000080E80E94780083EF3B
:1001900091E00197F1F700C0000008950F931F93BD
:1001A000CF93DF938C01C0E0D0E003C00E948C00AD
:1001B0002196F801EC0FFD1F80818111F7CFDF91AF
:1001C000CF911F910F91089581E00E94780083EFF5
:1001D00091E00197F1F700C0000080E80E947800EC
:1001E0000895CF92DF92EF92FF920F931F93CF93D8
:1001F000DF934091820050918300209180003091E4
:100200008100241B350B64E6629FC001639F900D43
:10021000112460917E0070917F00641B750B0E9419
:10022000C803CB01880F991F880F991F880F991F4A
:1002300064E670E00E94DC037B0108E010E0061B2E
:10024000170B80EC0E947800C12CD12C1DC080E6D9
:1002500090E00E94CE00C1E0D0E005C080E690E0D2
:100260000E94CE002196CE15DF05C4F3C1E0D0E098
:1002700005C082E690E00E94CE002196C017D1070B
:10028000C4F38FEFC81AD80A84E0C816D104FCF270
:10029000DF91CF911F910F91FF90EF90DF90CF9062
:1002A0000895CF93DF93CDB7DEB765970FB6F89477
:1002B000DEBF0FBECDBF0E9449000E94A00087EAAA
:1002C00091E60197F1F700C000008CE00E947800F1
:1002D00087EA91E60197F1F700C000000E941F0233
:1002E0001FBC1DBC1CBC80E288BF81E48EBD08B66B
:1002F00005FEFDCF86B597B590938300809382006D
:1003000080E288BF81E08EBD08B605FEFDCF86B5D0
:1003100097B5909381008093800080E288BF81E44C
:100320008EBD08B605FEFDCF86B597B590937F00CC
:1003300080937E0080E288BF1EBC60918000709137
:10034000810080918200909183008617970708F0C2
:1003500065C0C0907E00D0907F006C157D0508F0D0
:100360005DC08B01081B190BC81AD90AE12CF12CAE
:1003700060E074E284EF90E0A70196010E94F00330
:1003800049015A01B80180E090E00E94CD022B01A2
:100390003C01C701B6010E94CD029B01AC01C30123
:1003A000B2010E94250220E030E048EC52E40E94B5
:1003B0005B036B017C012AE0AE014F5F5F4FC5011B
:1003C000B4010E943C04C701B6010E949702DC01FF
:1003D000CB014AE0BE01615F7F4F0E94310480E89B
:1003E0000E94780084E690E00E94CE00CE01019643
:1003F0000E94CE0087E690E00E94CE0088E80E942E
:1004000078008AE690E00E94CE00CE010F960E940E
:10041000CE008FE690E00E94CE0006C00E94E4006D
:1004200081E790E00E94CE0083ED90E30197F1F721
:1004300000C000000E94F10083E78CBF51CF8AE624
:1004400083BF87B3886087BB08950E9439020C94EC
:1004500021030E941A0358F00E94130340F029F46C
:100460005F3F29F00C940A0351110C9455030C942E
:1004700010030E94320368F39923B1F3552391F3DB
:10048000951B550BBB27AA2762177307840738F003
:100490009F5F5F4F220F331F441FAA1FA9F335D060
:1004A0000E2E3AF0E0E832D091505040E695001C14
:1004B000CAF72BD0FE2F29D0660F771F881FBB1FCE
:1004C000261737074807AB07B0E809F0BB0B802DAC
:1004D000BF01FF2793585F4F3AF09E3F510578F0D8
:1004E0000C940A030C9455035F3FE4F3983ED4F355
:1004F000869577956795B795F7959F5FC9F7880FAC
:10050000911D9695879597F90895E1E0660F771FFD
:10051000881FBB1F621773078407BA0720F0621B8E
:10052000730B840BBA0BEE1F88F7E09508950E94B9
:100530009E026894B1110C94550308950E943A03E9
:1005400088F09F5798F0B92F9927B751B0F0E1F094
:10055000660F771F881F991F1AF0BA95C9F714C044
:10056000B13091F00E945403B1E008950C9454030B
:10057000672F782F8827B85F39F0B93FCCF386957D
:1005800077956795B395D9F73EF4909580957095DA
:1005900061957F4F8F4F9F4F0895E89409C097FB57
:1005A0003EF490958095709561957F4F8F4F9F4F4A
:1005B0009923A9F0F92F96E9BB279395F69587958E
:1005C00077956795B795F111F8CFFAF4BB0F11F451
:1005D00060FF1BC06F5F7F4F8F4F9F4F16C08823F8
:1005E00011F096E911C0772321F09EE8872F762F2E
:1005F00005C0662371F096E8862F70E060E02AF06F
:100600009A95660F771F881FDAF7880F969587955A
:1006100097F9089597F99F6780E870E060E0089582
:100620009FEF80EC089500240A941616170618060A
:100630000906089500240A941216130614060506E6
:100640000895092E0394000C11F4882352F0BB0F77
:1006500040F4BF2B11F460FF04C06F5F7F4F8F4FDA
:100660009F4F089557FD9058440F551F59F05F3F15
:1006700071F04795880F97FB991F61F09F3F79F0C4
:1006800087950895121613061406551FF2CF469546
:10069000F1DF08C0161617061806991FF1CF8695C8
:1006A0007105610508940895E894BB2766277727AC
:1006B000CB0197F908950E946E030C9421030E94C8
:1006C000130338F00E941A0320F0952311F00C94C4
:1006D0000A030C94100311240C9455030E94320356
:1006E00070F3959FC1F3950F50E0551F629FF00185
:1006F000729FBB27F00DB11D639FAA27F00DB11D9E
:10070000AA1F649F6627B00DA11D661F829F222726
:10071000B00DA11D621F739FB00DA11D621F839FAD
:10072000A00D611D221F749F3327A00D611D231F83
:10073000849F600D211D822F762F6A2F11249F57D1
:1007400050409AF0F1F088234AF0EE0FFF1FBB1FD4
:10075000661F771F881F91505040A9F79E3F510593
:1007600080F00C940A030C9455035F3FE4F3983E29
:10077000D4F3869577956795B795F795E7959F5F3D
:10078000C1F7FE2B880F911D9695879597F90895CF
:10079000AA1BBB1B51E107C0AA1FBB1FA617B707A7
:1007A00010F0A61BB70B881F991F5A95A9F78095C3
:1007B0009095BC01CD01089597FB072E16F4009487
:1007C00007D077FD09D00E94C80307FC05D03EF48E
:1007D000909581959F4F0895709561957F4F0895ED
:1007E000052E97FB1EF400940E94070457FD07D0C6
:1007F0000E940F0407FC03D04EF40C94070450959C
:100800004095309521953F4F4F4F5F4F08959095FC
:100810008095709561957F4F8F4F9F4F0895A1E20E
:100820001A2EAA1BBB1BFD010DC0AA1FBB1FEE1F6A
:10083000FF1FA217B307E407F50720F0A21BB30BB5
:10084000E40BF50B661F771F881F991F1A9469F731
:1008500060957095809590959B01AC01BD01CF018D
:100860000895BB274A3031F4992322F4BDE29095D4
:1008700081959F4F0C946E04BB272A3051F4992325
:1008800042F4BDE290958095709561957F4F8F4FB2
:100890009F4F0C944C04BB27FA01A62F62177105D9
:1008A00081059105330B30FB66F0AA27660F771F91
:1008B000881F991FAA1FA21710F0A21B639538501A
:1008C000A9F7A05DAA3308F0A95DA19336F7B1118D
:1008D000B1931082CA010C948704BB27FB015527F2
:1008E000AA27880F991FAA1FA41710F0A41B83958D
:1008F0005051B9F7A05DAA3308F0A95DA193009704
:1009000079F7B111B1931192CB010C948704DC01FA
:10091000FC01672F71917723E1F7329704C07C9136
:100920006D9370836291AE17BF07C8F30895F89472
:02093000FFCFF7
:100932002D005F00463A00487A002044433A0025E1
:0E094200006F7574206F662072616E6765002D
:00000001FF
